{
  "address": "0x94ECF374d9B06B0d2F427C79671c9DC24c22e4D9",
  "abi": [
    {
      "inputs": [],
      "stateMutability": "nonpayable",
      "type": "constructor"
    },
    {
      "inputs": [],
      "name": "TodoList__TaskIndexInvalid",
      "type": "error"
    },
    {
      "inputs": [],
      "name": "TodoList__TaskNameMinimumThree",
      "type": "error"
    },
    {
      "anonymous": false,
      "inputs": [
        {
          "components": [
            {
              "internalType": "string",
              "name": "taskName",
              "type": "string"
            },
            {
              "internalType": "enum TodoList.TaskStatus",
              "name": "taskStatus",
              "type": "uint8"
            }
          ],
          "indexed": true,
          "internalType": "struct TodoList.Task",
          "name": "task",
          "type": "tuple"
        },
        {
          "indexed": true,
          "internalType": "address",
          "name": "user",
          "type": "address"
        }
      ],
      "name": "AddTask",
      "type": "event"
    },
    {
      "inputs": [
        {
          "internalType": "string",
          "name": "taskName",
          "type": "string"
        }
      ],
      "name": "addTask",
      "outputs": [],
      "stateMutability": "nonpayable",
      "type": "function"
    },
    {
      "inputs": [
        {
          "internalType": "uint256",
          "name": "taskIndex",
          "type": "uint256"
        },
        {
          "internalType": "string",
          "name": "taskName",
          "type": "string"
        }
      ],
      "name": "editTaskName",
      "outputs": [],
      "stateMutability": "nonpayable",
      "type": "function"
    },
    {
      "inputs": [
        {
          "internalType": "uint256",
          "name": "taskIndex",
          "type": "uint256"
        }
      ],
      "name": "editTaskStatus",
      "outputs": [],
      "stateMutability": "nonpayable",
      "type": "function"
    },
    {
      "inputs": [
        {
          "internalType": "address",
          "name": "user",
          "type": "address"
        }
      ],
      "name": "getAddressTaskList",
      "outputs": [
        {
          "components": [
            {
              "internalType": "string",
              "name": "taskName",
              "type": "string"
            },
            {
              "internalType": "enum TodoList.TaskStatus",
              "name": "taskStatus",
              "type": "uint8"
            }
          ],
          "internalType": "struct TodoList.Task[]",
          "name": "",
          "type": "tuple[]"
        }
      ],
      "stateMutability": "view",
      "type": "function"
    },
    {
      "inputs": [
        {
          "internalType": "address",
          "name": "user",
          "type": "address"
        }
      ],
      "name": "getTaskListLength",
      "outputs": [
        {
          "internalType": "uint256",
          "name": "",
          "type": "uint256"
        }
      ],
      "stateMutability": "view",
      "type": "function"
    },
    {
      "inputs": [
        {
          "internalType": "uint256",
          "name": "taskIndex",
          "type": "uint256"
        },
        {
          "internalType": "address",
          "name": "user",
          "type": "address"
        }
      ],
      "name": "getTaskWithIndex",
      "outputs": [
        {
          "components": [
            {
              "internalType": "string",
              "name": "taskName",
              "type": "string"
            },
            {
              "internalType": "enum TodoList.TaskStatus",
              "name": "taskStatus",
              "type": "uint8"
            }
          ],
          "internalType": "struct TodoList.Task",
          "name": "",
          "type": "tuple"
        }
      ],
      "stateMutability": "view",
      "type": "function"
    },
    {
      "inputs": [
        {
          "internalType": "uint256",
          "name": "taskIndex",
          "type": "uint256"
        }
      ],
      "name": "taskDelete",
      "outputs": [],
      "stateMutability": "nonpayable",
      "type": "function"
    }
  ],
  "transactionHash": "0x9b4ff20d2801bb6c821097d2471dfdc5ae903ead156fcf776215b2099707d12a",
  "args": [],
  "numDeployments": 2,
  "solcInputHash": "f3d0d9d22cd5bcde4bc4925704efbcf4",
  "bytecode": "0x608060405234801561001057600080fd5b50611805806100206000396000f3fe608060405234801561001057600080fd5b506004361061007d5760003560e01c8063519761c21161005b578063519761c2146100fe578063672385621461011a578063a278b05714610136578063eae6ad3b146101665761007d565b8063301b7b1a14610082578063364ec91e1461009e57806340364880146100ce575b600080fd5b61009c60048036038101906100979190610c6a565b610182565b005b6100b860048036038101906100b39190610cf5565b610386565b6040516100c59190610f28565b60405180910390f35b6100e860048036038101906100e39190610cf5565b6104f0565b6040516100f59190610f59565b60405180910390f35b610118600480360381019061011391906110a9565b61053b565b005b610134600480360381019061012f9190611105565b610638565b005b610150600480360381019061014b919061114e565b6107ce565b60405161015d91906111cb565b60405180910390f35b610180600480360381019061017b9190610c6a565b610962565b005b60008110806101995750610195336104f0565b8110155b156101d0576040517f5597662a00000000000000000000000000000000000000000000000000000000815260040160405180910390fd5b6001808111156101e3576101e2610dde565b5b6000803373ffffffffffffffffffffffffffffffffffffffff1673ffffffffffffffffffffffffffffffffffffffff1681526020019081526020016000208281548110610233576102326111ed565b5b906000526020600020906002020160010160009054906101000a900460ff16600181111561026457610263610dde565b5b036102f85760008060003373ffffffffffffffffffffffffffffffffffffffff1673ffffffffffffffffffffffffffffffffffffffff16815260200190815260200160002082815481106102bb576102ba6111ed565b5b906000526020600020906002020160010160006101000a81548160ff021916908360018111156102ee576102ed610dde565b5b0217905550610383565b60016000803373ffffffffffffffffffffffffffffffffffffffff1673ffffffffffffffffffffffffffffffffffffffff168152602001908152602001600020828154811061034a576103496111ed565b5b906000526020600020906002020160010160006101000a81548160ff0219169083600181111561037d5761037c610dde565b5b02179055505b50565b60606000808373ffffffffffffffffffffffffffffffffffffffff1673ffffffffffffffffffffffffffffffffffffffff168152602001908152602001600020805480602002602001604051908101604052809291908181526020016000905b828210156104e557838290600052602060002090600202016040518060400160405290816000820180546104199061124b565b80601f01602080910402602001604051908101604052809291908181526020018280546104459061124b565b80156104925780601f1061046757610100808354040283529160200191610492565b820191906000526020600020905b81548152906001019060200180831161047557829003601f168201915b505050505081526020016001820160009054906101000a900460ff1660018111156104c0576104bf610dde565b5b60018111156104d2576104d1610dde565b5b81525050815260200190600101906103e6565b505050509050919050565b60008060008373ffffffffffffffffffffffffffffffffffffffff1673ffffffffffffffffffffffffffffffffffffffff168152602001908152602001600020805490509050919050565b6000821080610552575061054e336104f0565b8210155b15610589576040517f5597662a00000000000000000000000000000000000000000000000000000000815260040160405180910390fd5b6003815110156105c5576040517f7073ce0300000000000000000000000000000000000000000000000000000000815260040160405180910390fd5b806000803373ffffffffffffffffffffffffffffffffffffffff1673ffffffffffffffffffffffffffffffffffffffff1681526020019081526020016000208381548110610616576106156111ed565b5b906000526020600020906002020160000190816106339190611428565b505050565b600381511015610674576040517f7073ce0300000000000000000000000000000000000000000000000000000000815260040160405180910390fd5b6000803373ffffffffffffffffffffffffffffffffffffffff1673ffffffffffffffffffffffffffffffffffffffff1681526020019081526020016000206040518060400160405280838152602001600060018111156106d7576106d6610dde565b5b815250908060018154018082558091505060019003906000526020600020906002020160009091909190915060008201518160000190816107189190611428565b5060208201518160010160006101000a81548160ff0219169083600181111561074457610743610dde565b5b021790555050503373ffffffffffffffffffffffffffffffffffffffff1660405180604001604052808381526020016000600181111561078757610786610dde565b5b81525060405161079791906115ac565b60405180910390207fab28251ab887fa037ded2112fe73768940915f966176a63f530083eb8201f23e60405160405180910390a350565b6107d6610b97565b60008310806107ed57506107e9826104f0565b8310155b15610824576040517f5597662a00000000000000000000000000000000000000000000000000000000815260040160405180910390fd5b6000808373ffffffffffffffffffffffffffffffffffffffff1673ffffffffffffffffffffffffffffffffffffffff1681526020019081526020016000208381548110610874576108736111ed565b5b906000526020600020906002020160405180604001604052908160008201805461089d9061124b565b80601f01602080910402602001604051908101604052809291908181526020018280546108c99061124b565b80156109165780601f106108eb57610100808354040283529160200191610916565b820191906000526020600020905b8154815290600101906020018083116108f957829003601f168201915b505050505081526020016001820160009054906101000a900460ff16600181111561094457610943610dde565b5b600181111561095657610955610dde565b5b81525050905092915050565b60008110806109795750610975336104f0565b8110155b156109b0576040517f5597662a00000000000000000000000000000000000000000000000000000000815260040160405180910390fd5b60006109bb336104f0565b905060008290505b6001826109d091906115f2565b811015610b07576000803373ffffffffffffffffffffffffffffffffffffffff1673ffffffffffffffffffffffffffffffffffffffff168152602001908152602001600020600182610a229190611626565b81548110610a3357610a326111ed565b5b90600052602060002090600202016000803373ffffffffffffffffffffffffffffffffffffffff1673ffffffffffffffffffffffffffffffffffffffff1681526020019081526020016000208281548110610a9157610a906111ed565b5b906000526020600020906002020160008201816000019081610ab39190611670565b506001820160009054906101000a900460ff168160010160006101000a81548160ff02191690836001811115610aec57610aeb610dde565b5b02179055509050508080610aff90611758565b9150506109c3565b506000803373ffffffffffffffffffffffffffffffffffffffff1673ffffffffffffffffffffffffffffffffffffffff168152602001908152602001600020805480610b5657610b556117a0565b5b600190038181906000526020600020906002020160008082016000610b7b9190610bc3565b6001820160006101000a81549060ff0219169055505090555050565b60405180604001604052806060815260200160006001811115610bbd57610bbc610dde565b5b81525090565b508054610bcf9061124b565b6000825580601f10610be15750610c00565b601f016020900490600052602060002090810190610bff9190610c03565b5b50565b5b80821115610c1c576000816000905550600101610c04565b5090565b6000604051905090565b600080fd5b600080fd5b6000819050919050565b610c4781610c34565b8114610c5257600080fd5b50565b600081359050610c6481610c3e565b92915050565b600060208284031215610c8057610c7f610c2a565b5b6000610c8e84828501610c55565b91505092915050565b600073ffffffffffffffffffffffffffffffffffffffff82169050919050565b6000610cc282610c97565b9050919050565b610cd281610cb7565b8114610cdd57600080fd5b50565b600081359050610cef81610cc9565b92915050565b600060208284031215610d0b57610d0a610c2a565b5b6000610d1984828501610ce0565b91505092915050565b600081519050919050565b600082825260208201905092915050565b6000819050602082019050919050565b600081519050919050565b600082825260208201905092915050565b60005b83811015610d88578082015181840152602081019050610d6d565b60008484015250505050565b6000601f19601f8301169050919050565b6000610db082610d4e565b610dba8185610d59565b9350610dca818560208601610d6a565b610dd381610d94565b840191505092915050565b7f4e487b7100000000000000000000000000000000000000000000000000000000600052602160045260246000fd5b60028110610e1e57610e1d610dde565b5b50565b6000819050610e2f82610e0d565b919050565b6000610e3f82610e21565b9050919050565b610e4f81610e34565b82525050565b60006040830160008301518482036000860152610e728282610da5565b9150506020830151610e876020860182610e46565b508091505092915050565b6000610e9e8383610e55565b905092915050565b6000602082019050919050565b6000610ebe82610d22565b610ec88185610d2d565b935083602082028501610eda85610d3e565b8060005b85811015610f165784840389528151610ef78582610e92565b9450610f0283610ea6565b925060208a01995050600181019050610ede565b50829750879550505050505092915050565b60006020820190508181036000830152610f428184610eb3565b905092915050565b610f5381610c34565b82525050565b6000602082019050610f6e6000830184610f4a565b92915050565b600080fd5b600080fd5b7f4e487b7100000000000000000000000000000000000000000000000000000000600052604160045260246000fd5b610fb682610d94565b810181811067ffffffffffffffff82111715610fd557610fd4610f7e565b5b80604052505050565b6000610fe8610c20565b9050610ff48282610fad565b919050565b600067ffffffffffffffff82111561101457611013610f7e565b5b61101d82610d94565b9050602081019050919050565b82818337600083830152505050565b600061104c61104784610ff9565b610fde565b90508281526020810184848401111561106857611067610f79565b5b61107384828561102a565b509392505050565b600082601f8301126110905761108f610f74565b5b81356110a0848260208601611039565b91505092915050565b600080604083850312156110c0576110bf610c2a565b5b60006110ce85828601610c55565b925050602083013567ffffffffffffffff8111156110ef576110ee610c2f565b5b6110fb8582860161107b565b9150509250929050565b60006020828403121561111b5761111a610c2a565b5b600082013567ffffffffffffffff81111561113957611138610c2f565b5b6111458482850161107b565b91505092915050565b6000806040838503121561116557611164610c2a565b5b600061117385828601610c55565b925050602061118485828601610ce0565b9150509250929050565b600060408301600083015184820360008601526111ab8282610da5565b91505060208301516111c06020860182610e46565b508091505092915050565b600060208201905081810360008301526111e5818461118e565b905092915050565b7f4e487b7100000000000000000000000000000000000000000000000000000000600052603260045260246000fd5b7f4e487b7100000000000000000000000000000000000000000000000000000000600052602260045260246000fd5b6000600282049050600182168061126357607f821691505b6020821081036112765761127561121c565b5b50919050565b60008190508160005260206000209050919050565b60006020601f8301049050919050565b600082821b905092915050565b6000600883026112de7fffffffffffffffffffffffffffffffffffffffffffffffffffffffffffffffff826112a1565b6112e886836112a1565b95508019841693508086168417925050509392505050565b6000819050919050565b600061132561132061131b84610c34565b611300565b610c34565b9050919050565b6000819050919050565b61133f8361130a565b61135361134b8261132c565b8484546112ae565b825550505050565b600090565b61136861135b565b611373818484611336565b505050565b5b818110156113975761138c600082611360565b600181019050611379565b5050565b601f8211156113dc576113ad8161127c565b6113b684611291565b810160208510156113c5578190505b6113d96113d185611291565b830182611378565b50505b505050565b600082821c905092915050565b60006113ff600019846008026113e1565b1980831691505092915050565b600061141883836113ee565b9150826002028217905092915050565b61143182610d4e565b67ffffffffffffffff81111561144a57611449610f7e565b5b611454825461124b565b61145f82828561139b565b600060209050601f8311600181146114925760008415611480578287015190505b61148a858261140c565b8655506114f2565b601f1984166114a08661127c565b60005b828110156114c8578489015182556001820191506020850194506020810190506114a3565b868310156114e557848901516114e1601f8916826113ee565b8355505b6001600288020188555050505b505050505050565b600081905092915050565b600061151082610d4e565b61151a81856114fa565b935061152a818560208601610d6a565b61153381610d94565b840191505092915050565b600061154a8383611505565b905092915050565b61155b81610e34565b82525050565b600061156d8383611552565b60208301905092915050565b6000808301600083015161158d858261153e565b945050602083015161159f8582611561565b9450508391505092915050565b60006115b88284611579565b915081905092915050565b7f4e487b7100000000000000000000000000000000000000000000000000000000600052601160045260246000fd5b60006115fd82610c34565b915061160883610c34565b92508282039050818111156116205761161f6115c3565b5b92915050565b600061163182610c34565b915061163c83610c34565b9250828201905080821115611654576116536115c3565b5b92915050565b6000815490506116698161124b565b9050919050565b81810361167e575050611756565b6116878261165a565b67ffffffffffffffff8111156116a05761169f610f7e565b5b6116aa825461124b565b6116b582828561139b565b6000601f8311600181146116e457600084156116d2578287015490505b6116dc858261140c565b86555061174f565b601f1984166116f28761127c565b96506116fd8661127c565b60005b8281101561172557848901548255600182019150600185019450602081019050611700565b86831015611742578489015461173e601f8916826113ee565b8355505b6001600288020188555050505b5050505050505b565b600061176382610c34565b91507fffffffffffffffffffffffffffffffffffffffffffffffffffffffffffffffff8203611795576117946115c3565b5b600182019050919050565b7f4e487b7100000000000000000000000000000000000000000000000000000000600052603160045260246000fdfea2646970667358221220274ff77603f018695c8755c2518a6e191a963cb66e7bab7842511da8bf33213164736f6c63430008110033",
  "devdoc": {
    "kind": "dev",
    "methods": {},
    "version": 1
  },
  "userdoc": {
    "kind": "user",
    "methods": {},
    "version": 1
  },
  "storageLayout": {
    "storage": [
      {
        "astId": 20,
        "contract": "contracts/TodoList.sol:TodoList",
        "label": "taskList",
        "offset": 0,
        "slot": "0",
        "type": "t_mapping(t_address,t_array(t_struct(Task)14_storage)dyn_storage)"
      }
    ],
    "types": {
      "t_address": {
        "encoding": "inplace",
        "label": "address",
        "numberOfBytes": "20"
      },
      "t_array(t_struct(Task)14_storage)dyn_storage": {
        "base": "t_struct(Task)14_storage",
        "encoding": "dynamic_array",
        "label": "struct TodoList.Task[]",
        "numberOfBytes": "32"
      },
      "t_enum(TaskStatus)8": {
        "encoding": "inplace",
        "label": "enum TodoList.TaskStatus",
        "numberOfBytes": "1"
      },
      "t_mapping(t_address,t_array(t_struct(Task)14_storage)dyn_storage)": {
        "encoding": "mapping",
        "key": "t_address",
        "label": "mapping(address => struct TodoList.Task[])",
        "numberOfBytes": "32",
        "value": "t_array(t_struct(Task)14_storage)dyn_storage"
      },
      "t_string_storage": {
        "encoding": "bytes",
        "label": "string",
        "numberOfBytes": "32"
      },
      "t_struct(Task)14_storage": {
        "encoding": "inplace",
        "label": "struct TodoList.Task",
        "members": [
          {
            "astId": 10,
            "contract": "contracts/TodoList.sol:TodoList",
            "label": "taskName",
            "offset": 0,
            "slot": "0",
            "type": "t_string_storage"
          },
          {
            "astId": 13,
            "contract": "contracts/TodoList.sol:TodoList",
            "label": "taskStatus",
            "offset": 0,
            "slot": "1",
            "type": "t_enum(TaskStatus)8"
          }
        ],
        "numberOfBytes": "64"
      }
    }
  }
}